:100000000C942A000C9447000C9447000C94470071
:100010000C9447000C9447000C9447000C94470044
:100020000C9447000C9447000C9447000C94470034
:100030000C9447000C9447000C9447000C94470024
:100040000C9447000C9447000C9447000C94470014
:100050000C94470011241FBECFE5D8E0DEBFCDBF12
:1000600011E0A0E6B0E0E2EBF2E102C005900D92F3
:10007000AA39B107D9F711E0AAE9B1E001C01D9290
:10008000A23AB107E1F70E9418050C9457090C94A5
:10009000000040E00E94500008950E94BE010895B3
:1000A000843409F454C0853448F4823499F183349B
:1000B00008F06AC0813409F083C00FC0823651F164
:1000C000833620F4813609F07BC007C0833609F4FB
:1000D0005BC0843609F074C03AC0413069F42AB379
:1000E00081E090E0AC0102C0440F551F6A95E2F731
:1000F000BA01622B6ABB08952AB381E090E0AC019B
:1001000002C0440F551F6A95E2F7BA016095622359
:100110006ABB0895413069F427B381E090E0AC01F7
:1001200002C0440F551F6A95E2F7BA01622B67BB04
:10013000089527B381E090E0AC0102C0440F551F41
:100140006A95E2F7BA016095622367BB0895413072
:1001500069F421B381E090E0AC0102C0440F551F67
:100160006A95E2F7BA01622B61BB089521B381E081
:1001700090E0AC0102C0440F551F6A95E2F7BA0146
:100180006095622361BB0895413069F424B381E036
:1001900090E0AC0102C0440F551F6A95E2F7BA0126
:1001A000622B64BB089524B381E090E0AC0102C0EF
:1001B000440F551F6A95E2F7BA016095622364BB4C
:1001C0000895843409F454C0853448F4823499F194
:1001D000833408F06AC0813409F083C00FC08236CE
:1001E00051F1833620F4813609F07BC007C0833695
:1001F00009F45BC0843609F074C03AC0413069F438
:100200002BB381E090E0AC0102C0440F551F6A950A
:10021000E2F7BA01622B6BBB08952BB381E090E04B
:10022000AC0102C0440F551F6A95E2F7BA01609510
:1002300062236BBB0895413069F428B381E090E0FC
:10024000AC0102C0440F551F6A95E2F7BA01622B58
:1002500068BB089528B381E090E0AC0102C0440F70
:10026000551F6A95E2F7BA016095622368BB08954D
:10027000413069F422B381E090E0AC0102C0440F48
:10028000551F6A95E2F7BA01622B62BB089522B34B
:1002900081E090E0AC0102C0440F551F6A95E2F77F
:1002A000BA016095622362BB0895413069F425B3B9
:1002B00081E090E0AC0102C0440F551F6A95E2F75F
:1002C000BA01622B65BB089525B381E090E0AC01D3
:1002D00002C0440F551F6A95E2F7BA016095622388
:1002E00065BB0895843481F1853440F48234F9F09B
:1002F0008334B8F5813409F040C00CC08236B9F0BF
:10030000833618F48136C9F505C0833651F1843639
:10031000A1F51AC02BB381E090E0AC0102C0440FFC
:10032000551F6A95E2F7BA0162276BBB089528B39F
:1003300081E090E0AC0102C0440F551F6A95E2F7DE
:10034000BA01622768BB089522B381E090E0AC0156
:1003500002C0440F551F6A95E2F7BA01622762BBDB
:10036000089525B381E090E0AC0102C0440F551F11
:100370006A95E2F7BA01622765BB0895843409F4EF
:1003800051C0853440F4823439F18334C0F581346E
:1003900009F05AC00EC08236F9F0833620F4813657
:1003A00009F052C006C0833651F1843609F04CC0C2
:1003B00039C029B381E090E0062E02C0880F991F52
:1003C0000A94E2F730E08223932302C09595879543
:1003D0006A95E2F7982F38C026B381E090E0062EA8
:1003E00002C0880F991F0A94E2F730E0822393231A
:1003F00002C0959587956A95E2F7982F25C023B39B
:1004000081E090E0062E02C0880F991F0A94E2F75F
:1004100030E08223932302C0959587956A95E2F791
:10042000982F12C020B381E090E0062E02C0880F02
:10043000991F0A94E2F730E08223932302C0959536
:1004400087956A95E2F7982F892F08958434C9F02B
:10045000853438F4823499F08334A8F48134A1F4DB
:100460000CC0823661F0833618F4813669F405C019
:10047000833649F0843641F404C06ABB089567BBF3
:10048000089561BB089564BB08958434C9F0853430
:1004900038F4823499F08334A8F48134A1F40CC088
:1004A000823661F0833618F4813669F405C08336EC
:1004B00049F0843641F404C06BBB089568BB0895CD
:1004C00062BB089565BB08958434D1F0853438F457
:1004D000823499F08334B8F48134B9F40CC0823694
:1004E00061F0833618F4813681F405C0833659F003
:1004F000843659F405C099B308C086B388BB05C0DB
:1005000080B382BB02C083B385BB892F0895843436
:10051000E9F0853438F48234A9F08334D8F4813496
:10052000E1F40CC0823671F0833618F48136A9F4F8
:1005300005C0833679F0843681F408C08BB380958A
:100540008BBB089588B3809588BB089582B380954E
:1005500082BB089585B3809585BB0895823451F19F
:10056000833420F4813409F07BC007C0833409F45C
:100570003EC0843409F074C057C0413069F42BB3D5
:1005800081E090E0AC0102C0440F551F6A95E2F78C
:10059000BA01622B6BBB08952BB381E090E0AC01F4
:1005A00002C0440F551F6A95E2F7BA0160956223B5
:1005B0006BBB0895413069F428B381E090E0AC0151
:1005C00002C0440F551F6A95E2F7BA01622B68BB5F
:1005D000089528B381E090E0AC0102C0440F551F9C
:1005E0006A95E2F7BA016095622368BB08954130CD
:1005F00069F425B381E090E0AC0102C0440F551FBF
:100600006A95E2F7BA01622B65BB089525B381E0D4
:1006100090E0AC0102C0440F551F6A95E2F7BA01A1
:100620006095622365BB0895413069F422B381E08F
:1006300090E0AC0102C0440F551F6A95E2F7BA0181
:10064000622B62BB089522B381E090E0AC0102C04E
:10065000440F551F6A95E2F7BA016095622362BBA9
:1006600008956F70823489F0833418F4813409F569
:1006700005C0833489F08434E1F415C08BB3807FE6
:100680008BBB8BB3682B6BBB089588B3807F88BB13
:1006900088B3682B68BB089585B3807F85BB85B31D
:1006A000682B65BB089582B3807F82BB82B3682BC1
:1006B00062BB08956295607F823489F0833418F4B8
:1006C000813409F505C0833489F08434E1F415C020
:1006D0008BB38F708BBB8BB3682B6BBB089588B3C8
:1006E0008F7088BB88B3682B68BB089585B38F7003
:1006F00085BB85B3682B65BB089582B38F7082BBC1
:1007000082B3682B62BB08958EBB9FBB6DBBE29A20
:10071000E19AE199FECF08958EBB9FBBE09A8DB31D
:10072000089584E460E041E00E94500084E461E0C8
:1007300041E00E94500084E462E041E00E945000E9
:1007400084E463E041E00E94500081E460E040E026
:100750000E94500081E461E040E00E94500081E48A
:1007600062E040E00E94500081E463E040E00E94CB
:10077000500081E460E041E00E94AE0281E461E06B
:1007800041E00E94AE0281E462E041E00E94AE02DC
:1007900081E463E041E00E94AE0208950F931F934D
:1007A000CF93DF93CDB7DEB760970FB6F894DEBF77
:1007B0000FBECDBFDE011196E0E6F0E080E10190D2
:1007C0000D928150E1F700E084E460E041E00E9496
:1007D000E10084E461E041E00E94E10084E462E041
:1007E00041E00E94E10084E463E041E00E94E10016
:1007F00084E4602F40E00E94E10010E081E4612F7A
:100800000E94BE01882361F4E02FF0E0EE0FFF1F8D
:10081000EE0FFF1FE10FF11DEC0FFD1F818104C0E2
:100820001F5F143059F70BC060960FB6F894DEBF07
:100830000FBECDBFDF91CF911F910F9108950F5F34
:10084000043011F68FEFF0CF82E460E041E00E94C7
:10085000E1008FE99FE00197F1F700C0000082E41A
:1008600060E040E00E94E1008FE99FE00197F1F72E
:1008700000C000000895CF93C82F682F62956F7055
:1008800081E40E945A0382E461E040E00E94E100BA
:100890000E94240481E46C2F0E945A0382E461E0E8
:1008A00040E00E94E1000E9424048FEC97E0019751
:1008B000F1F700C00000CF9108958FEF91EEA4E012
:1008C00081509040A040E1F700C0000081E464E066
:1008D00041E00E94500081E465E041E00E94500048
:1008E00081E466E041E00E94500081E467E041E07D
:1008F0000E94500082E460E041E00E94500082E4E7
:1009000062E041E00E94500082E461E041E00E9428
:10091000500082E462E040E00E94E10082E00E9438
:100920003B04AFE1BEE41197F1F700C0000088E29C
:100930000E943B048FEC97E00197F1F700C00000A4
:100940008CE00E943B04AFECB7E01197F1F700C0D8
:10095000000081E00E943B048FE19EE40197F1F7E3
:1009600000C0000086E00E943B04AFECB7E01197A6
:10097000F1F700C000000895CF93C82F682F62954B
:100980006F7081E40E945A0382E461E041E00E94BA
:10099000E1000E94240481E46C2F0E945A0382E447
:1009A00061E041E00E94E1000E9424048FEC97E0A6
:1009B0000197F1F700C00000CF910895CF93DF9326
:1009C000EC018881882331F021960E94BC04899132
:1009D0008823D9F7DF91CF91089581E00E943B04ED
:1009E0008FE19EE40197F1F700C000000895282FE1
:1009F0002150223070F4613170F4662371F081303F
:100A000019F4962F91580AC0823041F4962F9154D0
:100A100005C090E803C090E801C090E8892F0E94CB
:100A20003B048FEC97E00197F1F700C000000895B8
:100A30000E9491030E945D048D9A8E9ABB9ABC9A83
:100A400080E290E00E948C038F3F59F580E790E0B0
:100A50000E94DE04C1E2D0E00E94CE03182F8F3F37
:100A6000D9F30E94BC048FEF94E3ACE08150904036
:100A7000A040E1F700C000006C2F675181E00E94A8
:100A8000F7048AE20E94BC04CE01612F0E94840315
:100A90002196C532D10501F780E290E060E00E9426
:100AA000840385E290E00E948C038F3F79F582E019
:100AB00061E00E94F7048AE790E00E94DE04C6E24B
:100AC000D0E00E94CE03182F8F3FD9F30E94BC04C0
:100AD0008FEF94E3ACE081509040A040E1F700C07C
:100AE00000006C2F6C5182E00E94F7048AE20E94A1
:100AF000BC04CE01612F0E9484032196CA32D10525
:100B000001F785E290E060E00E9484030F2EF1E39C
:100B1000BF2EF02D0DE911E088248A943801089445
:100B2000610871080F2EFEEF4F2EFFEF5F2EF02DA4
:100B3000400E511E0F2EFDEFEF2EFFEFFF2EF02D7A
:100B4000E00EF11E0F2EF4E82F2EF0E03F2EF02DD8
:100B5000AF2CCE2CD8018C92F3018082D2018C92E2
:100B6000F70180820E94ED04C1010E94DE04CC2DB9
:100B7000DA2D0F2EFCE0DF2EF02D0E94CE038883AD
:100B80008F3FD9F30E94BC048FEF94E3ACE0815017
:100B90009040A040E1F700C0000081E06D2D0E9470
:100BA000F7048AE20E94BC04D394219690E1D916FE
:100BB00021F781E290E00E948C03AAE9B1E09C91C8
:100BC000891709F065C082E290E00E948C03EBE98E
:100BD000F1E09081891709F05BC083E290E00E9408
:100BE0008C03ACE9B1E09C91891709F051C084E213
:100BF00090E00E948C03F8019081891709F048C0A9
:100C00000E94ED0480E990E00E94DE0482E061E051
:100C10000E94F7048FE990E00E94DE048FEF99E6CE
:100C2000A8E181509040A040E1F700C000000E9480
:100C3000ED048CEA90E00E94DE0482E061E00E9414
:100C4000F7048AEB90E00E94DE048FEF9DE3A9E4B5
:100C500081509040A040E1F700C000000E94ED04E8
:100C60008CEC90E00E94DE0482E061E00E94F704D8
:100C70008AED90E00E94DE048FEF93EDA0E38150B7
:100C80009040A040E1F700C000000E94ED048DC13B
:100C900090E3B91619F10E94ED048CEE90E00E94E9
:100CA000DE048FEF99E6A8E181509040A040E1F783
:100CB00000C000000E94ED048BEF90E00E94DE0473
:100CC0008B2D0E94BC048FEF99E6A8E181509040E3
:100CD000A040E1F700C00000BA943CCF0E94ED04B0
:100CE0008CEE90E00E94DE0482E061E00E94F70456
:100CF00087E091E00E94DE0458C18C2F0E94BC0462
:100D00008FE79AE1A6E081509040A040E1F700C053
:100D10000000C53309F46FC0C63370F4C233B1F1BB
:100D2000C33320F4C13309F068C113C0C333D1F118
:100D3000C43309F062C153C0C73309F47BC0C73361
:100D400008F46DC0C83309F489C0C33409F055C133
:100D500090C00E94ED0484E191E00E94DE0482E0F4
:100D600061E00E94F7048FE990E00E94DE048FEFBB
:100D700093EDA0E381509040A040E1F700C0000057
:100D800082E463E041E00E94E10037C10E94ED048B
:100D900082E291E00E94DE0484E465E041E00E948A
:100DA000E1002BC10E94ED0482E391E00E94DE0489
:100DB00082E061E00E94F7048FE990E00E94DE0487
:100DC0008FEF99E6A8E181509040A040E1F700C084
:100DD000000082E464E041E00E94E1000EC10E9454
:100DE000ED0482E291E00E94DE0484E466E041E0EA
:100DF0000E94E10002C10E94ED04C7010E94DE04CE
:100E00008FEF99E6A8E181509040A040E1F700C043
:100E1000000082E463E040E00E94E100EEC00E9436
:100E2000ED04C6010E94DE0484E465E040E00E9417
:100E3000E100E3C00E94ED04C7010E94DE048FEFD1
:100E400099E6A8E181509040A040E1F700C0000081
:100E500082E464E040E00E94E100CFC00E94ED0423
:100E6000C6010E94DE0484E466E040E00E94E100E6
:100E7000C4C08FEFD4018C938093A00180939F0115
:100E8000F30180830E94ED04C2010E94DE04C02FA2
:100E9000DB2D1CE00E94CE0388838F3FD9F30E9494
:100EA000BC048FEF94E3ACE081509040A040E1F7A8
:100EB00000C0000081E0612F0E94F7048AE20E94D6
:100EC000BC041F5F2196103129F781E290E00E9457
:100ED0008C03D1019C91891709F08FC082E290E0C8
:100EE0000E948C03EBE9F1E09081891709F085C03D
:100EF00083E290E00E948C03ACE9B1E09C918917F9
:100F000009F07BC084E290E00E948C03EDE9F1E0FF
:100F10009081891709F071C00E94ED0480E990E08A
:100F20000E94DE0482E061E00E94F70487E091E025
:100F30000E94DE040E94ED048DE691E00E94DE0432
:100F400082E061E00E94F70481E891E00E94DE0403
:100F50008FEF99E6A8E181509040A040E1F700C0F2
:100F6000000082E463E040E00E94E10084E465E088
:100F700040E00E94E10082E464E040E00E94E10081
:100F800084E466E040E00E94E1000E94ED0489E80C
:100F900091E00E94DE048FEF99E6A8E18150904035
:100FA000A040E1F700C0000028C00F2EFCE3EF2EA8
:100FB000F1E0FF2EF02D0F2EFEE4CF2EF1E0DF2E1C
:100FC000F02D0F2EF1EA8F2EF1E09F2EF02D0F2E37
:100FD000FDEF6F2EFFEF7F2EF02D680C791C0F2E8A
:100FE000FFE54F2EF1E05F2EF02D062DB72C0F2ED2
:100FF000FAE92F2EF1E03F2EF02D0E94CE03C82FEC
:101000008F3F09F07ACE8FE79AE1A6E081509040B9
:10101000A040E1F700C00000F0CF83B7886083BF35
:1010200080E58CBF83B7816083BF83B7846083BF53
:10103000789489B7826089BF0895BB9A83B7886026
:1010400083BF80E48CBF83B7816083BF83B7846034
:1010500083BF83B7806183BF08958D9A2FB52260C7
:101060002FBD2EB528602EBD2EB520612EBD20E0EF
:1010700030E04AE754E40E94CC080E947708DC0183
:10108000CB019BBD8ABD8FE19EE497BD86BD8EB529
:1010900081608EBD8FB580688FBD08958D9A22E8DE
:1010A0002FBD2AE12EBD2FE13EE437BD26BD20E055
:1010B00030E04AE754E40E94CC080E947708DC0143
:1010C000CB019BBD8ABD0895BB9A83B7806483BF63
:1010D00080E48CBF83B7816083BF83B7846083BFA4
:1010E00083B7806183BF83B7806283BF089533D0A5
:1010F00088F09F5790F0B92F9927B751A0F0D1F001
:10110000660F771F881F991F1AF0BA95C9F712C08A
:10111000B13081F03AD0B1E0089537C0672F782F11
:101120008827B85F39F0B93FCCF3869577956795F6
:10113000B395D9F73EF490958095709561957F4F62
:101140008F4F9F4F089557FD9058440F551F59F0EA
:101150005F3F71F04795880F97FB991F61F09F3FA4
:1011600079F087950895121613061406551FF2CFCD
:101170004695F1DF08C0161617061806991FF1CF1D
:1011800086957105610508940895E894BB27662744
:101190007727CB0197F908950BD078C069D028F054
:1011A0006ED018F0952309F05AC05FC01124EECF1D
:1011B000CADFA0F3959FD1F3950F50E0551F629FB2
:1011C000F001729FBB27F00DB11D639FAA27F00DA0
:1011D000B11DAA1F649F6627B00DA11D661F829FC7
:1011E0002227B00DA11D621F739FB00DA11D621FAC
:1011F000839FA00D611D221F749F3327A00D611DC9
:10120000231F849F600D211D822F762F6A2F1124AA
:101210009F5750408AF0E1F088234AF0EE0FFF1FFD
:10122000BB1F661F771F881F91505040A9F79E3F34
:10123000510570F014C0AACF5F3FECF3983EDCF389
:10124000869577956795B795F795E7959F5FC1F771
:10125000FE2B880F911D9695879597F9089597F91C
:101260009F6780E870E060E008959FEF80EC08954C
:1012700000240A9416161706180609060895002475
:101280000A9412161306140605060895092E0394EF
:10129000000C11F4882352F0BB0F40F4BF2B11F463
:1012A00060FF04C06F5F7F4F8F4F9F4F0895F8948A
:0212B000FFCF6E
:1012B2003738392F3435362A3132332D43303D2BEE
:1012C20053657420506173733A00536574204C6FF8
:1012D200636B3A00436865636B20506173733A0035
:1012E20052696768742050617373776F7264005734
:1012F200656C636F6D6520486F6D6500636F6E741A
:10130200726F6C20726F6F6D31004C696768743157
:101312002D636F6E646974696F6E3200636F6E74F1
:10132200726F6C20726F6F6D32004C696768743334
:101332002D636F6E646974696F6E340057726F6EDD
:10134200672050617373776F72640074726965739A
:10135200206C6566743A00486F757365206C6F6324
:101362006B65640054686520726F6F6D31206C6923
:101372007400636F6E646974696F6E696E67206F63
:101382006E00726F6F6D32206C6974006C696768F1
:101392007473207475726E6564206F666600636F85
:1013A2006E646974696F6E696E67206F6666004865
:1013B2006F757365206C6F636B65643A006C696767
:1013C20068747320636F6E646974696F6E696E67A7
:1013D20000202020204F66660054686520686F75E3
:0A13E2007365206C6F636B65640097
:00000001FF
